{
  "address": "0xDB9aD1c0e38567CB5b8334451f235027e9f1c4a4",
  "abi": [
    {
      "inputs": [
        {
          "internalType": "address",
          "name": "_paymentToken",
          "type": "address"
        },
        {
          "internalType": "address",
          "name": "_pandoraServer",
          "type": "address"
        }
      ],
      "stateMutability": "nonpayable",
      "type": "constructor"
    },
    {
      "inputs": [],
      "name": "FDBRegistry__EmptyName",
      "type": "error"
    },
    {
      "inputs": [],
      "name": "FDBRegistry__EmptySymbol",
      "type": "error"
    },
    {
      "inputs": [],
      "name": "FDBRegistry__InsufficientAllowance",
      "type": "error"
    },
    {
      "inputs": [],
      "name": "FDBRegistry__InsufficientBalance",
      "type": "error"
    },
    {
      "inputs": [],
      "name": "FDBRegistry__InsufficientPayment",
      "type": "error"
    },
    {
      "inputs": [],
      "name": "FDBRegistry__NotCollectionOwner",
      "type": "error"
    },
    {
      "inputs": [],
      "name": "FDBRegistry__TransferFailed",
      "type": "error"
    },
    {
      "anonymous": false,
      "inputs": [
        {
          "indexed": true,
          "internalType": "address",
          "name": "owner",
          "type": "address"
        },
        {
          "indexed": false,
          "internalType": "uint256",
          "name": "amount",
          "type": "uint256"
        }
      ],
      "name": "BalanceWithdrawn",
      "type": "event"
    },
    {
      "anonymous": false,
      "inputs": [
        {
          "indexed": true,
          "internalType": "address",
          "name": "nftContract",
          "type": "address"
        },
        {
          "indexed": true,
          "internalType": "address",
          "name": "owner",
          "type": "address"
        },
        {
          "indexed": false,
          "internalType": "string",
          "name": "name",
          "type": "string"
        },
        {
          "indexed": false,
          "internalType": "string",
          "name": "symbol",
          "type": "string"
        },
        {
          "indexed": false,
          "internalType": "string",
          "name": "description",
          "type": "string"
        },
        {
          "indexed": false,
          "internalType": "string",
          "name": "privateColumns",
          "type": "string"
        },
        {
          "indexed": false,
          "internalType": "string",
          "name": "publicColumns",
          "type": "string"
        },
        {
          "indexed": false,
          "internalType": "uint256",
          "name": "proofSetId",
          "type": "uint256"
        },
        {
          "indexed": false,
          "internalType": "uint256",
          "name": "price",
          "type": "uint256"
        },
        {
          "indexed": false,
          "internalType": "uint256",
          "name": "size",
          "type": "uint256"
        },
        {
          "indexed": true,
          "internalType": "uint256",
          "name": "collectionId",
          "type": "uint256"
        }
      ],
      "name": "CollectionCreated",
      "type": "event"
    },
    {
      "anonymous": false,
      "inputs": [
        {
          "indexed": true,
          "internalType": "address",
          "name": "nftContract",
          "type": "address"
        },
        {
          "indexed": false,
          "internalType": "bool",
          "name": "isActive",
          "type": "bool"
        }
      ],
      "name": "CollectionStatusUpdated",
      "type": "event"
    },
    {
      "anonymous": false,
      "inputs": [
        {
          "indexed": true,
          "internalType": "address",
          "name": "nftContract",
          "type": "address"
        },
        {
          "indexed": true,
          "internalType": "address",
          "name": "buyer",
          "type": "address"
        },
        {
          "indexed": true,
          "internalType": "uint256",
          "name": "tokenId",
          "type": "uint256"
        },
        {
          "indexed": false,
          "internalType": "uint256",
          "name": "price",
          "type": "uint256"
        }
      ],
      "name": "NFTPurchased",
      "type": "event"
    },
    {
      "inputs": [],
      "name": "BASE_TOKEN_URI",
      "outputs": [
        {
          "internalType": "string",
          "name": "",
          "type": "string"
        }
      ],
      "stateMutability": "view",
      "type": "function"
    },
    {
      "inputs": [],
      "name": "DEPLOYER_FEE_PERCENT",
      "outputs": [
        {
          "internalType": "uint256",
          "name": "",
          "type": "uint256"
        }
      ],
      "stateMutability": "view",
      "type": "function"
    },
    {
      "inputs": [],
      "name": "PAYMENTS_FEE_PERCENT",
      "outputs": [
        {
          "internalType": "uint256",
          "name": "",
          "type": "uint256"
        }
      ],
      "stateMutability": "view",
      "type": "function"
    },
    {
      "inputs": [],
      "name": "RESERVE_PERIOD_DAYS",
      "outputs": [
        {
          "internalType": "uint256",
          "name": "",
          "type": "uint256"
        }
      ],
      "stateMutability": "view",
      "type": "function"
    },
    {
      "inputs": [
        {
          "internalType": "address",
          "name": "nftContract",
          "type": "address"
        },
        {
          "internalType": "address[]",
          "name": "recipients",
          "type": "address[]"
        }
      ],
      "name": "batchMintNFTs",
      "outputs": [
        {
          "internalType": "uint256[]",
          "name": "",
          "type": "uint256[]"
        }
      ],
      "stateMutability": "nonpayable",
      "type": "function"
    },
    {
      "inputs": [
        {
          "internalType": "string",
          "name": "name",
          "type": "string"
        },
        {
          "internalType": "string",
          "name": "symbol",
          "type": "string"
        },
        {
          "internalType": "string",
          "name": "description",
          "type": "string"
        },
        {
          "internalType": "string",
          "name": "privateColumns",
          "type": "string"
        },
        {
          "internalType": "string",
          "name": "publicColumns",
          "type": "string"
        },
        {
          "internalType": "uint256",
          "name": "proofSetId",
          "type": "uint256"
        },
        {
          "internalType": "uint256",
          "name": "price",
          "type": "uint256"
        },
        {
          "internalType": "uint256",
          "name": "size",
          "type": "uint256"
        }
      ],
      "name": "createCollection",
      "outputs": [
        {
          "internalType": "address",
          "name": "",
          "type": "address"
        }
      ],
      "stateMutability": "nonpayable",
      "type": "function"
    },
    {
      "inputs": [],
      "name": "getActiveCollections",
      "outputs": [
        {
          "internalType": "address[]",
          "name": "",
          "type": "address[]"
        }
      ],
      "stateMutability": "view",
      "type": "function"
    },
    {
      "inputs": [],
      "name": "getAllCollections",
      "outputs": [
        {
          "internalType": "address[]",
          "name": "",
          "type": "address[]"
        }
      ],
      "stateMutability": "view",
      "type": "function"
    },
    {
      "inputs": [
        {
          "internalType": "address",
          "name": "user",
          "type": "address"
        }
      ],
      "name": "getBalance",
      "outputs": [
        {
          "internalType": "uint256",
          "name": "",
          "type": "uint256"
        }
      ],
      "stateMutability": "view",
      "type": "function"
    },
    {
      "inputs": [
        {
          "internalType": "address",
          "name": "nftContract",
          "type": "address"
        }
      ],
      "name": "getCollectionEffectivePrice",
      "outputs": [
        {
          "internalType": "uint256",
          "name": "",
          "type": "uint256"
        }
      ],
      "stateMutability": "view",
      "type": "function"
    },
    {
      "inputs": [
        {
          "internalType": "address",
          "name": "nftContract",
          "type": "address"
        }
      ],
      "name": "getCollectionInfo",
      "outputs": [
        {
          "components": [
            {
              "internalType": "address",
              "name": "nftContract",
              "type": "address"
            },
            {
              "internalType": "address",
              "name": "owner",
              "type": "address"
            },
            {
              "internalType": "string",
              "name": "name",
              "type": "string"
            },
            {
              "internalType": "string",
              "name": "symbol",
              "type": "string"
            },
            {
              "internalType": "string",
              "name": "description",
              "type": "string"
            },
            {
              "internalType": "string",
              "name": "privateColumns",
              "type": "string"
            },
            {
              "internalType": "string",
              "name": "publicColumns",
              "type": "string"
            },
            {
              "internalType": "string",
              "name": "publicCid",
              "type": "string"
            },
            {
              "internalType": "string",
              "name": "privateCid",
              "type": "string"
            },
            {
              "internalType": "uint256",
              "name": "proofSetId",
              "type": "uint256"
            },
            {
              "internalType": "uint256",
              "name": "price",
              "type": "uint256"
            },
            {
              "internalType": "uint256",
              "name": "size",
              "type": "uint256"
            },
            {
              "internalType": "uint256",
              "name": "createdAt",
              "type": "uint256"
            },
            {
              "internalType": "bool",
              "name": "isActive",
              "type": "bool"
            }
          ],
          "internalType": "struct FDBRegistry.Collection",
          "name": "",
          "type": "tuple"
        }
      ],
      "stateMutability": "view",
      "type": "function"
    },
    {
      "inputs": [
        {
          "internalType": "address",
          "name": "nftContract",
          "type": "address"
        }
      ],
      "name": "getCollectionReserveCost",
      "outputs": [
        {
          "internalType": "uint256",
          "name": "",
          "type": "uint256"
        }
      ],
      "stateMutability": "view",
      "type": "function"
    },
    {
      "inputs": [],
      "name": "getPaymentToken",
      "outputs": [
        {
          "internalType": "address",
          "name": "",
          "type": "address"
        }
      ],
      "stateMutability": "view",
      "type": "function"
    },
    {
      "inputs": [],
      "name": "getTotalCollections",
      "outputs": [
        {
          "internalType": "uint256",
          "name": "",
          "type": "uint256"
        }
      ],
      "stateMutability": "view",
      "type": "function"
    },
    {
      "inputs": [
        {
          "internalType": "address",
          "name": "user",
          "type": "address"
        }
      ],
      "name": "getUserCollectionCount",
      "outputs": [
        {
          "internalType": "uint256",
          "name": "",
          "type": "uint256"
        }
      ],
      "stateMutability": "view",
      "type": "function"
    },
    {
      "inputs": [
        {
          "internalType": "address",
          "name": "user",
          "type": "address"
        }
      ],
      "name": "getUserCollections",
      "outputs": [
        {
          "components": [
            {
              "internalType": "address",
              "name": "nftContract",
              "type": "address"
            },
            {
              "internalType": "address",
              "name": "owner",
              "type": "address"
            },
            {
              "internalType": "string",
              "name": "name",
              "type": "string"
            },
            {
              "internalType": "string",
              "name": "symbol",
              "type": "string"
            },
            {
              "internalType": "string",
              "name": "description",
              "type": "string"
            },
            {
              "internalType": "string",
              "name": "privateColumns",
              "type": "string"
            },
            {
              "internalType": "string",
              "name": "publicColumns",
              "type": "string"
            },
            {
              "internalType": "string",
              "name": "publicCid",
              "type": "string"
            },
            {
              "internalType": "string",
              "name": "privateCid",
              "type": "string"
            },
            {
              "internalType": "uint256",
              "name": "proofSetId",
              "type": "uint256"
            },
            {
              "internalType": "uint256",
              "name": "price",
              "type": "uint256"
            },
            {
              "internalType": "uint256",
              "name": "size",
              "type": "uint256"
            },
            {
              "internalType": "uint256",
              "name": "createdAt",
              "type": "uint256"
            },
            {
              "internalType": "bool",
              "name": "isActive",
              "type": "bool"
            }
          ],
          "internalType": "struct FDBRegistry.Collection[]",
          "name": "",
          "type": "tuple[]"
        }
      ],
      "stateMutability": "view",
      "type": "function"
    },
    {
      "inputs": [
        {
          "internalType": "address",
          "name": "nftContract",
          "type": "address"
        }
      ],
      "name": "hasNFT",
      "outputs": [
        {
          "internalType": "bool",
          "name": "",
          "type": "bool"
        }
      ],
      "stateMutability": "view",
      "type": "function"
    },
    {
      "inputs": [
        {
          "internalType": "address",
          "name": "nftContract",
          "type": "address"
        },
        {
          "internalType": "address",
          "name": "user",
          "type": "address"
        }
      ],
      "name": "isCollectionOwner",
      "outputs": [
        {
          "internalType": "bool",
          "name": "",
          "type": "bool"
        }
      ],
      "stateMutability": "view",
      "type": "function"
    },
    {
      "inputs": [
        {
          "internalType": "address",
          "name": "nftContract",
          "type": "address"
        },
        {
          "internalType": "address",
          "name": "to",
          "type": "address"
        }
      ],
      "name": "mintNFT",
      "outputs": [
        {
          "internalType": "uint256",
          "name": "",
          "type": "uint256"
        }
      ],
      "stateMutability": "nonpayable",
      "type": "function"
    },
    {
      "inputs": [
        {
          "internalType": "address",
          "name": "nftContract",
          "type": "address"
        }
      ],
      "name": "purchase",
      "outputs": [
        {
          "internalType": "uint256",
          "name": "",
          "type": "uint256"
        }
      ],
      "stateMutability": "nonpayable",
      "type": "function"
    },
    {
      "inputs": [
        {
          "internalType": "address",
          "name": "nftContract",
          "type": "address"
        },
        {
          "internalType": "string",
          "name": "publicCid",
          "type": "string"
        },
        {
          "internalType": "string",
          "name": "privateCid",
          "type": "string"
        }
      ],
      "name": "setCollectionCid",
      "outputs": [],
      "stateMutability": "nonpayable",
      "type": "function"
    },
    {
      "inputs": [
        {
          "internalType": "address",
          "name": "nftContract",
          "type": "address"
        }
      ],
      "name": "toggleCollectionStatus",
      "outputs": [],
      "stateMutability": "nonpayable",
      "type": "function"
    },
    {
      "inputs": [],
      "name": "withdraw",
      "outputs": [],
      "stateMutability": "nonpayable",
      "type": "function"
    }
  ],
  "transactionHash": "0xe6708eeb0d8e2a6e5fd54809bec747060ebb6b0609581674232c3671fa8b3137",
  "args": [
    "0xb3042734b608a1B16e9e86B374A3f3e389B4cDf0",
    "0xAB187e95508699b36b91b727365E1B24362eFaA6"
  ],
  "numDeployments": 1,
  "solcInputHash": "ef53b16a8aa0f256c9a0a958ec5d83e5",
  "bytecode": "0x60e0346200017f57601f620041ad38819003918201601f19168301916001600160401b03831184841017620001845780849260409485528339810103126200017f576200005a602062000052836200019a565b92016200019a565b6001600160a01b0391821691908215620001205716908115620000c15760805260a0523360c052604051613ffd9081620001b0823960805181818161088701528181611272015261148d015260a051818181610bfb01526115ae015260c0518161161b0152f35b60405162461bcd60e51b815260206004820152603160248201527f46444252656769737472793a2050616e646f726153657276657220616464726560448201527073732063616e6e6f74206265207a65726f60781b6064820152608490fd5b60405162461bcd60e51b815260206004820152603160248201527f46444252656769737472793a205061796d656e7420746f6b656e20616464726560448201527073732063616e6e6f74206265207a65726f60781b6064820152608490fd5b600080fd5b634e487b7160e01b600052604160045260246000fd5b51906001600160a01b03821682036200017f5756fe608060405260043610156200001357600080fd5b6000803560e01c80630d40ec3314620018f05780631641ea8014620018d257806325b31a9714620013ef5780633332617f14620013405780633ccfd60b1462001217578063465dcabb146200114b57806365d8955414620008695780636804a95814620010b85780636f458133146200108257806371852c771462000d47578063785f8ee31462000c8d5780637cb63c0e1462000ba7578063852bc0761462000b535780638cf6b0e81462000b175780639056a04b1462000a5d578063939bf6dd1462000a3d5780639aa5ad8c146200094b5780639f1883d614620008b6578063d41c3a65146200086f578063e36339711462000869578063ea25c6af1462000460578063f0ee570414620001715763f8b2cb4f146200013257600080fd5b346200016e5760203660031901126200016e576020906040906001600160a01b036200015d62001a55565b168152600283522054604051908152f35b80fd5b50346200016e5760403660031901126200016e576200018f62001a55565b906024918235906001600160401b0382116200045c57366023830112156200045c578160040135620001c18162001d1c565b92620001d1604051948562001af0565b818452602091868386019160051b8301019136831162000458578701905b82821062000437575050506001600160a01b039182168085526001808352604086208082015491979185163303620004255760ff600d620002339201541662001dfd565b845115620003d65760648551116200039457849694959392955192620002766200025d8562001d1c565b946200026d604051968762001af0565b80865262001d1c565b8488019890601f1901368a3785875b620002c8575b50505050506040519380850191818652518092526040850195925b828110620002b45785870386f35b8351875295810195928101928401620002a6565b819997999895969851811015620003875782620002e6828462001d8c565b516040516335313c2160e11b815291166004820152868186818d8a5af19081156200037c57908b9695949392918b916200033e575b509086916200032b828b62001d8c565b5201909192939497999896959862000285565b80929750888092503d831162000374575b6200035b818362001af0565b810103126200036f57518a9590866200031b565b600080fd5b503d6200034f565b6040513d8c823e3d90fd5b989698979594976200028b565b606490836040519162461bcd60e51b83528160048401528201527f46444252656769737472793a20546f6f206d616e7920726563697069656e74736044820152fd5b8260236084926040519262461bcd60e51b845260048401528201527f46444252656769737472793a204e6f20726563697069656e74732070726f766960448201526219195960ea1b6064820152fd5b604051631a8ca86b60e01b8152600490fd5b81356001600160a01b03811681036200036f578152908301908301620001ef565b8680fd5b8280fd5b50346200016e576101003660031901126200016e576004356001600160401b03811162000865576200049790369060040162001bc4565b906024356001600160401b0381116200086557620004ba90369060040162001bc4565b906044356001600160401b0381116200086557620004dd90369060040162001bc4565b926064356001600160401b0381116200045c576200050090369060040162001bc4565b6084356001600160401b03811162000861576200052290369060040162001bc4565b948251156200084f578451156200083d576200053d62001b12565b60405190816116b38101106001600160401b036116b384011117620007f657620005b882916116b362002915843960606116b3840152620005a16200058a60606116b38601018962001b82565b6116b38501810360206116b3870101528a62001b82565b906116b38401820360406116b38601015262001b82565b039085f09485156200083257604051620005d28162001aa1565b60018060a01b03871681523360208201528460408201528160608201528260808201528360a08201528760c08201526040516200060f8162001ad4565b86815260e0820152604051620006258162001ad4565b86815261010082015260a43561012082015260c43561014082015260e43561016082015242610180820152856101a08201523386528560205260408620805490600160401b8210156200081e57600182018082558210156200080a5782620006b993926200069e928a52600e60208b209102016200205a565b6001600160a01b03881687526001602052604087206200205a565b600354600160401b811015620007f657806001620006db920160035562001d34565b81546001600160a01b0389811660039390931b92831b921b1916179055600454620007069062001d66565b94856004556000198601958611620007e257506200078392620007656020989362000756620007749462000748604051996101008b526101008b019062001b82565b908982038d8b015262001b82565b90878203604089015262001b82565b90858203606087015262001b82565b90838203608085015262001b82565b60a43560a083015260c43560c083015260e43560e083015233916001600160a01b038516917f0a77689d277c33794eaa1b79132d5a57ee0ce655983b68a80452f684a74fa05c919081900390a46040516001600160a01b039091168152f35b634e487b7160e01b81526011600452602490fd5b634e487b7160e01b86526041600452602486fd5b634e487b7160e01b88526032600452602488fd5b634e487b7160e01b88526041600452602488fd5b6040513d86823e3d90fd5b60405163e1a5a0cb60e01b8152600490fd5b604051630a27f5a960e21b8152600490fd5b8380fd5b5080fd5b62001a83565b50346200016e57806003193601126200016e576040517f00000000000000000000000000000000000000000000000000000000000000006001600160a01b03168152602090f35b50346200016e5760203660031901126200016e576001600160a01b0380620008dd62001a55565b16908183526001602052604083209060018201541633036200042557602060ff600d7f79e37877969a45af2a00e507e8e00e9701442e50f51a85dae8dafc20c1341c4d93016200093d8282541615829060ff801983541691151516179055565b54166040519015158152a280f35b50346200016e576020806003193601126200086557906001600160a01b036200097362001a55565b168152808252604081208054916200098b8362001d1c565b926200099b604051948562001af0565b8084528484018093835285832083915b83831062000a155750505050604051928484019085855251809152604084019460408260051b8601019392955b828710620009e65785850386f35b90919293828062000a04600193603f198a8203018652885162001c1f565b9601920196019592919092620009d8565b600e8860019262000a2a859b9a989b62001f6e565b81520192019201919096939596620009ab565b50346200016e57806003193601126200016e576020600454604051908152f35b50346200016e5760203660031901126200016e5762000afe604062000b139262000a8662001a55565b816101a0845162000a978162001aa1565b8281528260208201526060808783015280808301528060808301528060a08301528060c08301528060e083015261010082015282610120820152826101408201528261016082015282610180820152015260018060a01b0316815260016020522062001f6e565b60405191829160208352602083019062001c1f565b0390f35b50346200016e5760203660031901126200016e576020906040906001600160a01b0362000b4362001a55565b1681528083522054604051908152f35b50346200016e5760403660031901126200016e5760209062000b7462001a55565b9062000b7f62001a6c565b6001600160a01b03928316825260018085526040928390200154915190831691909216148152f35b50346200016e57602090816003193601126200016e576001600160a01b03908162000bd162001a55565b16815260018352826009604083200154602460405180958193634141ed4b60e01b835260048301527f0000000000000000000000000000000000000000000000000000000000000000165afa91821562000c8057819262000c4b575b50600782029180830460071490151715620007e25750604051908152f35b9091508281813d831162000c78575b62000c66818362001af0565b810103126200036f5751903862000c2d565b503d62000c5a565b50604051903d90823e3d90fd5b50346200016e57602090816003193601126200016e576024826001600160a01b0362000cd48162000cbd62001a55565b169182865260018452604086205416151562001da1565b6040516370a0823160e01b815233600482015292839182905afa91821562000d3b579162000d08575b506040519015158152f35b90508181813d831162000d33575b62000d22818362001af0565b810103126200036f57513862000cfd565b503d62000d16565b604051903d90823e3d90fd5b50346200016e5760603660031901126200016e5762000d6562001a55565b6024356001600160401b0381116200045c5762000d8790369060040162001bc4565b6044356001600160401b038111620008615762000da990369060040162001bc4565b60018060a01b0391828416855260016020526040852091836001840154163303620004255781516001600160401b0381116200106e578062000def600786015462001e80565b93601f9485811162001018575b5060209085831160011462000fa957899262000f9d575b50508160011b916000199060031b1c19161760078401555b60088301918151916001600160401b0383116200081e5762000e4e845462001e80565b82811162000f56575b50602091831160011462000ee957600d9493929188918362000edd575b50508160011b916000199060031b1c19161790555b019081549060ff82161562000e9c578480f35b7f79e37877969a45af2a00e507e8e00e9701442e50f51a85dae8dafc20c1341c4d92600160209360ff191617905560405193600185521692a2388080808480f35b01519050388062000e74565b838852602088209190601f198416895b81811062000f3d5750916001939185600d989796941062000f23575b505050811b01905562000e89565b015160001960f88460031b161c1916905538808062000f15565b9293602060018192878601518155019501930162000ef9565b848952602089208380860160051c8201926020871062000f93575b0160051c01905b81811062000f87575062000e57565b89815560010162000f78565b9250819262000f71565b01519050388062000e13565b600787018a5260208a209250601f1984168a5b81811062000fff575090846001959493921062000fe5575b505050811b01600784015562000e2b565b015160001960f88460031b161c1916905538808062000fd4565b9293602060018192878601518155019501930162000fbc565b909150600786018952602089208580850160051c8201926020861062001064575b9085949392910160051c01905b81811062001055575062000dfc565b8a815584935060010162001046565b9250819262001039565b634e487b7160e01b87526041600452602487fd5b50346200016e57806003193601126200016e5762000b13620010a362001b12565b60405191829160208352602083019062001b82565b50346200016e57806003193601126200016e57604051600380548083529083526020808301937fc2575a0e9e593c00f959f8c92f12db2869c3395a3b0502d05e2516446f71f85b92915b8282106200112a5762000b13856200111d8189038262001af0565b6040519182918262001a0e565b83546001600160a01b03168652948501946001938401939091019062001102565b50346200016e5760403660031901126200016e576200116962001a55565b906200117462001a6c565b60018060a01b0380931690818352602093600185526040842081600182015416330362000425578592620011b160ff600d60249401541662001dfd565b8560405195869485936335313c2160e11b85521660048401525af191821562000d3b5791620011e4575b50604051908152f35b90508181813d83116200120f575b620011fe818362001af0565b810103126200036f575138620011db565b503d620011f2565b50346200016e57806003193601126200016e5733815260206002815260408220549081156200132e57338084526002825260408085208590555163a9059cbb60e01b81526004810191909152602481018390528181604481877f00000000000000000000000000000000000000000000000000000000000000006001600160a01b03165af190811562000832578491620012fa575b5015620012e1577fddc398b321237a8d40ac914388309c2f52a08c134e4dc4ce61e32f57cb7d80f1906040519283523392a280f35b33835260029052604051635cba196560e01b8152600490fd5b6200131f9150823d841162001326575b62001316818362001af0565b81019062001e66565b38620012ac565b503d6200130a565b60405163184fc3f160e21b8152600490fd5b50346200016e57602090816003193601126200016e576001600160a01b036200136862001a55565b169081815260018352600a60408220015460405192633e5b1e0760e11b845260048401528383602481305afa91821562000d3b5791620013b7575b620013af925062001e58565b604051908152f35b90508282813d8311620013e7575b620013d1818362001af0565b810103126200036f57620013af915190620013a3565b503d620013c5565b50346200016e5760208060031936011262000865576001600160a01b03806200141762001a55565b16908184526001835260408420916200143582845416151562001da1565b6200144760ff600d8501541662001dfd565b604051633e5b1e0760e11b8152600481018290529160249085848381305afa938415620018c757879462001892575b50600a8501946200148985875462001e58565b94827f0000000000000000000000000000000000000000000000000000000000000000166040516370a0823160e01b815233600482015289818781855afa80156200183e5788918c916200185b575b50106200184957604051636eb1769f60e11b815233600482015230868201528981604481855afa80156200183e5788918c9162001803575b5010620017f157888a916064604051809481936323b872dd60e01b8352336004840152308b8401528c60448401525af19081156200037c578a91620017cf575b5015620017bd576040516335313c2160e11b815233600482015296888886818d8a5af19788156200037c578a9862001784575b505493600a8502858104600a14861517156200177157604051630c396c7f60e41b81526064909104957f0000000000000000000000000000000000000000000000000000000000000000861693908b83600481885afa92831562001766578d936200172d575b506007830292808404600714901517156200171a578781039081116200171a578c9291620016179162001e58565b96867f000000000000000000000000000000000000000000000000000000000000000016835260028c52620016526040842091825462001e58565b90556009850154843b156200045c5760449083604051968794859363524ab0a360e01b85526004850152878401525af180156200037c57620016e6575b5050859697620016b19260016040930154168152600289522091825462001e58565b90556040519182527f84a34755616a04d6e547597ec5933d7ca8cf181bb354026be7e93e147edf0ab7853393a4604051908152f35b6001600160401b03829a939a116200170857506040529680620016b16200168f565b634e487b7160e01b8352604160045282fd5b634e487b7160e01b8d526011600452838dfd5b9092508b81813d83116200175e575b62001748818362001af0565b810103126200175a57519138620015e9565b8c80fd5b503d6200173c565b6040513d8f823e3d90fd5b50634e487b7160e01b8a52601160045289fd5b9097508881813d8311620017b5575b6200179f818362001af0565b81010312620017b15751963862001583565b8980fd5b503d62001793565b604051635cba196560e01b8152600490fd5b620017ea9150893d8b11620013265762001316818362001af0565b3862001550565b604051636cf6e1a760e11b8152600490fd5b8092508b8092503d831162001836575b6200181f818362001af0565b8101031262001832578790513862001510565b8a80fd5b503d62001813565b6040513d8d823e3d90fd5b60405163032b9d5d60e21b8152600490fd5b8092508b8092503d83116200188a575b62001877818362001af0565b81010312620018325787905138620014d8565b503d6200186b565b9093508581813d8311620018bf575b620018ad818362001af0565b81010312620004585751923862001476565b503d620018a1565b6040513d89823e3d90fd5b50346200016e57806003193601126200016e57602060405160078152f35b50346200016e57806003193601126200016e57600380549082805b838110620019bc5750620019236200025d8562001d1c565b602090601f1901368683013781805b8581106200194a576040518062000b13898262001a0e565b620019558162001d34565b90546001600160a01b0391871b1c811683526001845260408320600d015460ff1662001986575b5060010162001932565b8194620019b4916200199a60019462001d34565b905490891b1c16620019ad828b62001d8c565b5262001d66565b93906200197c565b620019c78162001d34565b905490841b1c6001600160a01b03168252600160205260408220600d015460ff16620019f7575b6001016200190b565b9362001a0560019162001d66565b949050620019ee565b602090602060408183019282815285518094520193019160005b82811062001a37575050505090565b83516001600160a01b03168552938101939281019260010162001a28565b600435906001600160a01b03821682036200036f57565b602435906001600160a01b03821682036200036f57565b346200036f5760003660031901126200036f576020604051600a8152f35b6101c081019081106001600160401b0382111762001abe57604052565b634e487b7160e01b600052604160045260246000fd5b602081019081106001600160401b0382111762001abe57604052565b90601f801991011681019081106001600160401b0382111762001abe57604052565b60405190606082018281106001600160401b0382111762001abe57604052603d82527f6366363166346365303039392e72322e6465762f6d657461646174612f0000006040837f68747470733a2f2f7075622d663131383061633039653035343339633934373560208201520152565b919082519283825260005b84811062001baf575050826000602080949584010152601f8019910116010190565b60208183018101518483018201520162001b8d565b81601f820112156200036f578035906001600160401b03821162001abe576040519262001bfc601f8401601f19166020018562001af0565b828452602083830101116200036f57816000926020809301838601378301015290565b9062001ce062001ccb62001cb862001ca562001c9262001c7f62001c6c6101c060018060a01b03808b51168a5260208b01511660208a015260408a0151908060408b015289019062001b82565b606089015188820360608a015262001b82565b6080880151878203608089015262001b82565b60a087015186820360a088015262001b82565b60c086015185820360c087015262001b82565b60e085015184820360e086015262001b82565b61010080850151908483039085015262001b82565b9161012080820151908301526101408082015190830152610160808201519083015261018080820151908301526101a080910151151591015290565b6001600160401b03811162001abe5760051b60200190565b60035481101562001d5057600360005260206000200190600090565b634e487b7160e01b600052603260045260246000fd5b600019811462001d765760010190565b634e487b7160e01b600052601160045260246000fd5b805182101562001d505760209160051b010190565b1562001da957565b60405162461bcd60e51b815260206004820152602660248201527f46444252656769737472793a20436f6c6c656374696f6e20646f6573206e6f7460448201526508195e1a5cdd60d21b6064820152608490fd5b1562001e0557565b60405162461bcd60e51b815260206004820152602560248201527f46444252656769737472793a20436f6c6c656374696f6e206973206e6f742061604482015264637469766560d81b6064820152608490fd5b9190820180921162001d7657565b908160209103126200036f575180151581036200036f5790565b90600182811c9216801562001eb2575b602083101462001e9c57565b634e487b7160e01b600052602260045260246000fd5b91607f169162001e90565b9060405191826000825462001ed28162001e80565b9081845260209460019160018116908160001462001f4a575060011462001f07575b50505062001f059250038362001af0565b565b600090815285812095935091905b81831062001f3157505062001f05935082010138808062001ef4565b8554888401850152948501948794509183019162001f15565b9250505062001f0594925060ff191682840152151560051b82010138808062001ef4565b9060405162001f7d8162001aa1565b6101a060ff600d839560018060a01b03808254168652600182015416602086015262001fac6002820162001ebd565b604086015262001fbf6003820162001ebd565b606086015262001fd26004820162001ebd565b608086015262001fe56005820162001ebd565b60a086015262001ff86006820162001ebd565b60c08601526200200b6007820162001ebd565b60e08601526200201e6008820162001ebd565b6101008601526009810154610120860152600a810154610140860152600b810154610160860152600c8101546101808601520154161515910152565b815181546001600160a01b03199081166001600160a01b039283161783556020808501516001808601805490941691909416179091556040840151805193949391926001600160401b0392600287019084811162001abe5780620020bf835462001e80565b94601f95868111620028bb575b508790868311600114620028535760009262002847575b5050600019600383901b1c191690831b1790555b600391828701606087015180519086821162001abe5781906200211b845462001e80565b858111620027f1575b5088908583116001146200278a576000926200277e575b505060001982871b1c191690841b1790555b600480880160808801518051908782116200276957819062002170845462001e80565b86811162002713575b508990868311600114620026ac57600092620026a0575b505060001982881b1c191690851b1790555b60059586890160a0890151805190888211620024fb578190620021c6845462001e80565b8781116200264b575b508490878311600114620025e457600092620025d8575b505060001982891b1c191690861b1790555b6006890160c0890151805190888211620024fb5781906200221a845462001e80565b87811162002583575b5084908783116001146200251c5760009262002510575b505060001982891b1c191690861b1790555b6007890160e0890151805190888211620024fb5781906200226e845462001e80565b878111620024a6575b5084908783116001146200243f5760009262002433575b505060001982891b1c191690861b1790555b60088901966101008901519283519788116200241e5750620022c3885462001e80565b90848211620023d5575b5050809286116001146200235757509362001f0597969381600d979481946101a0986000956200234b575b50501b92600019911b1c19161790555b6101208101516009850155610140810151600a850155610160810151600b850155610180810151600c8501550151151591019060ff801983541691151516179055565b015193503880620022f8565b9294939190601f1985168760005284600020946000905b828210620023bd575050928592600d98959262001f059b9a976101a0999610620023a2575b50505050811b01905562002308565b01519060f884600019921b161c191690553880808062002393565b8089869882949787015181550197019401906200236e565b88600052826000209085808a01821c830193858b1062002414575b01901c019085905b828110620024075750620022cd565b60008155018590620023f8565b93508293620023f0565b604190634e487b7160e01b6000525260246000fd5b0151905038806200228e565b90889350601f1983169185600052866000209260005b888282106200248f575050841162002476575b505050811b019055620022a0565b0151600019838b1b60f8161c1916905538808062002468565b8385015186558c9790950194938401930162002455565b9091508360005284600020878085018d1c820192878610620024f1575b918d8b928796959401901c01915b828110620024e157505062002277565b600081558594508a9101620024d1565b92508192620024c3565b604185634e487b7160e01b6000525260246000fd5b0151905038806200223a565b90889350601f1983169185600052866000209260005b888282106200256c575050841162002553575b505050811b0190556200224c565b0151600019838b1b60f8161c1916905538808062002545565b8385015186558c9790950194938401930162002532565b9091508360005284600020878085018d1c820192878610620025ce575b918d8b928796959401901c01915b828110620025be57505062002223565b600081558594508a9101620025ae565b92508192620025a0565b015190503880620021e6565b90889350601f1983169185600052866000209260005b888282106200263457505084116200261b575b505050811b019055620021f8565b0151600019838b1b60f8161c191690553880806200260d565b8385015186558c97909501949384019301620025fa565b9091508360005284600020878085018d1c82019287861062002696575b918d8b928796959401901c01915b82811062002686575050620021cf565b600081558594508a910162002676565b9250819262002668565b01519050388062002190565b90879350601f19831691856000528b6000209260005b8d828210620026fc5750508411620026e3575b505050811b019055620021a2565b0151600019838a1b60f8161c19169055388080620026d5565b8385015186558b97909501949384019301620026c2565b90915083600052896000208680850160051c8201928c86106200275f575b918991869594930160051c01915b8281106200274f57505062002179565b600081558594508991016200273f565b9250819262002731565b604184634e487b7160e01b6000525260246000fd5b0151905038806200213b565b90869350601f19831691856000528a6000209260005b8c828210620027da5750508411620027c1575b505050811b0190556200214d565b015160001983891b60f8161c19169055388080620027b3565b8385015186558a97909501949384019301620027a0565b90915083600052886000208580850160051c8201928b86106200283d575b918891869594930160051c01915b8281106200282d57505062002124565b600081558594508891016200281d565b925081926200280f565b015190503880620020e3565b90859350601f1983169185600052896000209260005b8b828210620028a457505084116200288a575b505050811b019055620020f7565b015160001960f88460031b161c191690553880806200287c565b838501518655899790950194938401930162002869565b909150600084600052886000208780860160051c8201938b87106200290a575b91889187969594930160051c01925b838110620028fb57505050620020cc565b828155869550889101620028ea565b93508193620028db56fe608060405234620004db57620016b3803803806200001d81620004e0565b9283398101606082820312620004db5781516001600160401b039190828111620004db57816200004f91850162000506565b9060209384810151848111620004db57826200006d91830162000506565b916040820151858111620004db5762000087920162000506565b825191848311620004c5576000908154936001958686811c96168015620004ba575b89871014620003c4578190601f9687811162000467575b50899087831160011462000403578592620003f7575b5050600019600383901b1c191690861b1782555b805190868211620003e35785548681811c91168015620003d8575b89821014620003c45790818684931162000371575b5088908683116001146200030d57849262000301575b5050600019600383901b1c191690851b1784555b3315620002e95760068054336001600160a01b0319821681179092556001600160a01b03167f8be0079c531659141344cd1fd0a4f28419497f9722a3daafe3b4186f6b6457e08380a38151948511620002d5576007548481811c91168015620002ca575b87821014620002b6578381116200026d575b508592851160011462000204579394508492919083620001f8575b50501b916000199060031b1c1916176007555b60405161113a9081620005798239f35b015192503880620001d5565b6007815285812093958591601f198316915b8883831062000252575050501062000238575b505050811b01600755620001e8565b015160001960f88460031b161c1916905538808062000229565b85870151885590960195948501948793509081019062000216565b600782528682208480880160051c820192898910620002ac575b0160051c019085905b828110620002a0575050620001ba565b83815501859062000290565b9250819262000287565b634e487b7160e01b82526022600452602482fd5b90607f1690620001a8565b634e487b7160e01b81526041600452602490fd5b60249060405190631e4fbdf760e01b82526004820152fd5b01519050388062000130565b8785528985208894509190601f198416865b8c8282106200035a575050841162000340575b505050811b01845562000144565b015160001960f88460031b161c1916905538808062000332565b8385015186558b979095019493840193016200031f565b9091508684528884208680850160051c8201928b8610620003ba575b918991869594930160051c01915b828110620003ab5750506200011a565b8681558594508991016200039b565b925081926200038d565b634e487b7160e01b84526022600452602484fd5b90607f169062000105565b634e487b7160e01b83526041600452602483fd5b015190503880620000d6565b8580528a86208994509190601f198416875b8d82821062000450575050841162000436575b505050811b018255620000ea565b015160001960f88460031b161c1916905538808062000428565b8385015186558c9790950194938401930162000415565b9091508480528985208780850160051c8201928c8610620004b0575b918a91869594930160051c01915b828110620004a1575050620000c0565b8781558594508a910162000491565b9250819262000483565b95607f1695620000a9565b634e487b7160e01b600052604160045260246000fd5b600080fd5b6040519190601f01601f191682016001600160401b03811183821017620004c557604052565b919080601f84011215620004db5782516001600160401b038111620004c5576020906200053c601f8201601f19168301620004e0565b92818452828287010111620004db5760005b8181106200056457508260009394955001015290565b85810183015184820184015282016200054e56fe6080604081815260048036101561001557600080fd5b600092833560e01c90816301ffc9a714610c295750806306fdde0314610b7a578063081812fc14610b3f578063095ea7b314610a6357806323b872dd14610a4b57806342842e0e14610a1c5780636352211e146109eb5780636a6278421461078057806370a082311461072b578063715018a6146106ce5780638da5cb5b146106a557806395d89b41146105b8578063a22cb46514610517578063b88d4fde14610482578063c87b56dd146101bc578063e985e9c51461016a5763f2fde38b146100de57600080fd5b34610166576020366003190112610166576100f7610cdd565b90610100610f8d565b6001600160a01b03918216928315610150575050600680546001600160a01b031981168417909155167f8be0079c531659141344cd1fd0a4f28419497f9722a3daafe3b4186f6b6457e08380a380f35b51631e4fbdf760e01b8152908101849052602490fd5b8280fd5b5050346101b857806003193601126101b85760ff8160209361018a610cdd565b610192610cf8565b6001600160a01b0391821683526005875283832091168252855220549151911615158152f35b5080fd5b508290346101b8576020918260031936011261047f5781356101dd81610f52565b5084519282916007549260019084821c828616958615610475575b8982108714610462578997969492828a928d98969484528a80850198918260001461044557505060011461040a575b5090610234910389610d75565b8751156103eb57818093879172184f03e93ff9f4daa797ed6e38ed64bf6a1f0160401b90818110156103de575b5050886d04ee2d6d415b85acef8100000000808710156103cf575b5050662386f26fc10000808610156103c0575b506305f5e100808610156103b1575b50612710808610156103a5575b50506064841015610397575b60219082600a80961015610390575b939291906102ed8382016102e56102dc82610d97565b9a519a8b610d75565b808a52610d97565b888b019990601f1901368b3750870101905b61035a575b50505050936103459261032a9492610339610356978a5197889551809288880190610c95565b84019151809386840190610c95565b01038084520182610d75565b925b51928284938452830190610cb8565b0390f35b600019019083906f181899199a1a9b1b9c1cb0b131b232b360811b8282061a83530491821561038b579190826102ff565b610304565b01826102c6565b6064909304926002016102b7565b90940493018b806102ab565b6008919295049401908c61029e565b6010919295049401908c61028f565b9091929504940190888d61027c565b0494508691508c80610261565b505050509091506103569250519061040282610d43565b815292610347565b600789528989208992505b81831061042a57505081018801610234610227565b8054838d018c01528c9a8e99508c9450909201918401610415565b60ff1916895291151560051b840190910191506102349050610227565b634e487b7160e01b885260228652602488fd5b90607f16906101f8565b80fd5b5090346101665760803660031901126101665761049d610cdd565b6104a5610cf8565b60443591856064359567ffffffffffffffff87116101b857366023880112156101b857860135956104e16104d888610d97565b96519687610d75565b86865236602488830101116101b8578661051497602460209301838901378601015261050e838383610db3565b33610fb9565b80f35b509034610166578060031936011261016657610531610cdd565b90602435918215158093036105b4576001600160a01b031692831561059f5750338452600560205280842083855260205280842060ff1981541660ff8416179055519081527f17307eab39ab6107e8899845ad3d59bd9653f200f220920489ca2b5937696c3160203392a380f35b836024925191630b61174360e31b8352820152fd5b8480fd5b50913461047f578060031936011261047f5781519181600192600154938460011c916001861695861561069b575b6020968785108114610688578899509688969785829a529182600014610661575050600114610623575b5050506103569291610347910385610d75565b9190869350600183528383205b8284106106495750505082010181610347610356610610565b8054848a018601528895508794909301928101610630565b60ff19168782015293151560051b8601909301935084925061034791506103569050610610565b634e487b7160e01b835260228a52602483fd5b92607f16926105e6565b5050346101b857816003193601126101b85760065490516001600160a01b039091168152602090f35b833461047f578060031936011261047f576106e7610f8d565b600680546001600160a01b0319811690915581906001600160a01b03167f8be0079c531659141344cd1fd0a4f28419497f9722a3daafe3b4186f6b6457e08280a380f35b50913461047f57602036600319011261047f576001600160a01b0361074e610cdd565b1692831561076b5750806020938392526003845220549051908152f35b91516322718ad960e21b815291820152602490fd5b509190346101b857602092836003193601126101665761079e610cdd565b6107a6610f8d565b60085493600019918286146109d857600186016008558451906107c882610d43565b8282526001600160a01b03818116949085156109c15785899182875260028c528987205416801515938461098f575b5081875260038c528987208054600101905582875260028c5289872080546001600160a01b031916831790557fddf252ad1be2c89b69c2b068fc378daa952ba7f163c4a11628f55a4df523b3ef8780a4610978573b61085b575b5050505051908152f35b84939591929451878180610896630a85bd0160e11b95868352338c840152886024840152876044840152608060648401526084830190610cb8565b0381878a5af1849181610938575b50610902575050503d6000146108fa573d6108be81610d97565b906108cb84519283610d75565b81528091863d92013e5b805194856108f457505051633250574960e11b81529182015260249150fd5b85925001fd5b5060606108d5565b9195939492506001600160e01b03199091160361092457505038808080610851565b6024925191633250574960e11b8352820152fd5b9091508881813d8311610971575b6109508183610d75565b810103126105b457516001600160e01b0319811681036105b45790386108a4565b503d610946565b85516339e3563760e11b8152808601849052602490fd5b600084815260046020526040902080546001600160a01b031916905581885260038d528a8820908154019055386107f7565b8751633250574960e11b8152808801869052602490fd5b634e487b7160e01b825260118452602482fd5b50913461047f57602036600319011261047f5750610a0b60209235610f52565b90516001600160a01b039091168152f35b5050346101b85761051490610a3036610d0e565b91925192610a3d84610d43565b85845261050e838383610db3565b833461047f57610514610a5d36610d0e565b91610db3565b509034610166578060031936011261016657610a7d610cdd565b91602435610a8a81610f52565b33151580610b2c575b80610b03575b610aed576001600160a01b039485169482918691167f8c5be1e5ebec7d5bd14f71427d1e84f3dd0314c0f7b2291e5b200ac8c7c3b9258880a48452602052822080546001600160a01b031916909117905580f35b835163a9fbf51f60e01b81523381850152602490fd5b506001600160a01b03811686526005602090815284872033885290528386205460ff1615610a99565b506001600160a01b038116331415610a93565b503461016657602036600319011261016657918260209335610b6081610f52565b50825283528190205490516001600160a01b039091168152f35b50913461047f578060031936011261047f578151918182549260018460011c9160018616958615610c1f575b6020968785108114610688578899509688969785829a529182600014610661575050600114610be2575050506103569291610347910385610d75565b91908693508280528383205b828410610c075750505082010181610347610356610610565b8054848a018601528895508794909301928101610bee565b92607f1692610ba6565b92505034610166576020366003190112610166573563ffffffff60e01b811680910361016657602092506380ac58cd60e01b8114908115610c84575b8115610c73575b5015158152f35b6301ffc9a760e01b14905038610c6c565b635b5e139f60e01b81149150610c65565b60005b838110610ca85750506000910152565b8181015183820152602001610c98565b90602091610cd181518092818552858086019101610c95565b601f01601f1916010190565b600435906001600160a01b0382168203610cf357565b600080fd5b602435906001600160a01b0382168203610cf357565b6060906003190112610cf3576001600160a01b03906004358281168103610cf357916024359081168103610cf3579060443590565b6020810190811067ffffffffffffffff821117610d5f57604052565b634e487b7160e01b600052604160045260246000fd5b90601f8019910116810190811067ffffffffffffffff821117610d5f57604052565b67ffffffffffffffff8111610d5f57601f01601f191660200190565b6001600160a01b039182169290918315610f3957600092828452826020956002875260409684888820541696879133151580610ea3575b509060027fddf252ad1be2c89b69c2b068fc378daa952ba7f163c4a11628f55a4df523b3ef9284610e70575b858352600381528b8320805460010190558683525289812080546001600160a01b0319168517905580a41692838303610e4f5750505050565b6064945051926364283d7b60e01b8452600484015260248301526044820152fd5b600087815260046020526040902080546001600160a01b0319169055848352600381528b83208054600019019055610e16565b91939450915080610ef8575b15610ebf57859291879138610dea565b878688610edc576024915190637e27328960e01b82526004820152fd5b604491519063177e802f60e01b82523360048301526024820152fd5b503387148015610f1d575b80610eaf5750858252600481523385898420541614610eaf565b5086825260058152878220338352815260ff8883205416610f03565b604051633250574960e11b815260006004820152602490fd5b6000818152600260205260409020546001600160a01b0316908115610f75575090565b60249060405190637e27328960e01b82526004820152fd5b6006546001600160a01b03163303610fa157565b60405163118cdaa760e01b8152336004820152602490fd5b909192833b610fca575b5050505050565b604051630a85bd0160e11b8082526001600160a01b03938416600483015293831660248201526044810191909152608060648201526020959190931693909190839061101a906084830190610cb8565b039285816000958187895af18491816110c4575b5061108e575050503d600014611086573d61104881610d97565b906110566040519283610d75565b81528091843d92013e5b8051928361108157604051633250574960e11b815260048101849052602490fd5b019050fd5b506060611060565b919450915063ffffffff60e01b16036110ac57503880808080610fc3565b60249060405190633250574960e11b82526004820152fd5b9091508681813d83116110fd575b6110dc8183610d75565b810103126105b457516001600160e01b0319811681036105b457903861102e565b503d6110d256fea2646970667358221220718d09d9c126c181f3caa141b468e2f60a8d711834dcb67f2f560214755be7c464736f6c63430008170033a2646970667358221220ec05b9ee22ee3422f0494d97e7f0ed6deea746244fed02cb1da16a4575a7e11364736f6c63430008170033",
  "devdoc": {
    "kind": "dev",
    "methods": {},
    "version": 1
  },
  "userdoc": {
    "kind": "user",
    "methods": {},
    "version": 1
  },
  "storageLayout": {
    "storage": [
      {
        "astId": 9446,
        "contract": "contracts/FDBRegistry.sol:FDBRegistry",
        "label": "s_userCollections",
        "offset": 0,
        "slot": "0",
        "type": "t_mapping(t_address,t_array(t_struct(Collection)9440_storage)dyn_storage)"
      },
      {
        "astId": 9451,
        "contract": "contracts/FDBRegistry.sol:FDBRegistry",
        "label": "s_collectionInfo",
        "offset": 0,
        "slot": "1",
        "type": "t_mapping(t_address,t_struct(Collection)9440_storage)"
      },
      {
        "astId": 9455,
        "contract": "contracts/FDBRegistry.sol:FDBRegistry",
        "label": "s_balances",
        "offset": 0,
        "slot": "2",
        "type": "t_mapping(t_address,t_uint256)"
      },
      {
        "astId": 9458,
        "contract": "contracts/FDBRegistry.sol:FDBRegistry",
        "label": "s_allCollections",
        "offset": 0,
        "slot": "3",
        "type": "t_array(t_address)dyn_storage"
      },
      {
        "astId": 9460,
        "contract": "contracts/FDBRegistry.sol:FDBRegistry",
        "label": "s_totalCollections",
        "offset": 0,
        "slot": "4",
        "type": "t_uint256"
      }
    ],
    "types": {
      "t_address": {
        "encoding": "inplace",
        "label": "address",
        "numberOfBytes": "20"
      },
      "t_array(t_address)dyn_storage": {
        "base": "t_address",
        "encoding": "dynamic_array",
        "label": "address[]",
        "numberOfBytes": "32"
      },
      "t_array(t_struct(Collection)9440_storage)dyn_storage": {
        "base": "t_struct(Collection)9440_storage",
        "encoding": "dynamic_array",
        "label": "struct FDBRegistry.Collection[]",
        "numberOfBytes": "32"
      },
      "t_bool": {
        "encoding": "inplace",
        "label": "bool",
        "numberOfBytes": "1"
      },
      "t_mapping(t_address,t_array(t_struct(Collection)9440_storage)dyn_storage)": {
        "encoding": "mapping",
        "key": "t_address",
        "label": "mapping(address => struct FDBRegistry.Collection[])",
        "numberOfBytes": "32",
        "value": "t_array(t_struct(Collection)9440_storage)dyn_storage"
      },
      "t_mapping(t_address,t_struct(Collection)9440_storage)": {
        "encoding": "mapping",
        "key": "t_address",
        "label": "mapping(address => struct FDBRegistry.Collection)",
        "numberOfBytes": "32",
        "value": "t_struct(Collection)9440_storage"
      },
      "t_mapping(t_address,t_uint256)": {
        "encoding": "mapping",
        "key": "t_address",
        "label": "mapping(address => uint256)",
        "numberOfBytes": "32",
        "value": "t_uint256"
      },
      "t_string_storage": {
        "encoding": "bytes",
        "label": "string",
        "numberOfBytes": "32"
      },
      "t_struct(Collection)9440_storage": {
        "encoding": "inplace",
        "label": "struct FDBRegistry.Collection",
        "members": [
          {
            "astId": 9413,
            "contract": "contracts/FDBRegistry.sol:FDBRegistry",
            "label": "nftContract",
            "offset": 0,
            "slot": "0",
            "type": "t_address"
          },
          {
            "astId": 9415,
            "contract": "contracts/FDBRegistry.sol:FDBRegistry",
            "label": "owner",
            "offset": 0,
            "slot": "1",
            "type": "t_address"
          },
          {
            "astId": 9417,
            "contract": "contracts/FDBRegistry.sol:FDBRegistry",
            "label": "name",
            "offset": 0,
            "slot": "2",
            "type": "t_string_storage"
          },
          {
            "astId": 9419,
            "contract": "contracts/FDBRegistry.sol:FDBRegistry",
            "label": "symbol",
            "offset": 0,
            "slot": "3",
            "type": "t_string_storage"
          },
          {
            "astId": 9421,
            "contract": "contracts/FDBRegistry.sol:FDBRegistry",
            "label": "description",
            "offset": 0,
            "slot": "4",
            "type": "t_string_storage"
          },
          {
            "astId": 9423,
            "contract": "contracts/FDBRegistry.sol:FDBRegistry",
            "label": "privateColumns",
            "offset": 0,
            "slot": "5",
            "type": "t_string_storage"
          },
          {
            "astId": 9425,
            "contract": "contracts/FDBRegistry.sol:FDBRegistry",
            "label": "publicColumns",
            "offset": 0,
            "slot": "6",
            "type": "t_string_storage"
          },
          {
            "astId": 9427,
            "contract": "contracts/FDBRegistry.sol:FDBRegistry",
            "label": "publicCid",
            "offset": 0,
            "slot": "7",
            "type": "t_string_storage"
          },
          {
            "astId": 9429,
            "contract": "contracts/FDBRegistry.sol:FDBRegistry",
            "label": "privateCid",
            "offset": 0,
            "slot": "8",
            "type": "t_string_storage"
          },
          {
            "astId": 9431,
            "contract": "contracts/FDBRegistry.sol:FDBRegistry",
            "label": "proofSetId",
            "offset": 0,
            "slot": "9",
            "type": "t_uint256"
          },
          {
            "astId": 9433,
            "contract": "contracts/FDBRegistry.sol:FDBRegistry",
            "label": "price",
            "offset": 0,
            "slot": "10",
            "type": "t_uint256"
          },
          {
            "astId": 9435,
            "contract": "contracts/FDBRegistry.sol:FDBRegistry",
            "label": "size",
            "offset": 0,
            "slot": "11",
            "type": "t_uint256"
          },
          {
            "astId": 9437,
            "contract": "contracts/FDBRegistry.sol:FDBRegistry",
            "label": "createdAt",
            "offset": 0,
            "slot": "12",
            "type": "t_uint256"
          },
          {
            "astId": 9439,
            "contract": "contracts/FDBRegistry.sol:FDBRegistry",
            "label": "isActive",
            "offset": 0,
            "slot": "13",
            "type": "t_bool"
          }
        ],
        "numberOfBytes": "448"
      },
      "t_uint256": {
        "encoding": "inplace",
        "label": "uint256",
        "numberOfBytes": "32"
      }
    }
  }
}